{
  "contractName": "CarRentalService",
  "abi": [
    {
      "inputs": [
        {
          "internalType": "uint256",
          "name": "_availableCars",
          "type": "uint256"
        }
      ],
      "stateMutability": "payable",
      "type": "constructor",
      "payable": true
    },
    {
      "inputs": [],
      "name": "availableCars",
      "outputs": [
        {
          "internalType": "uint256",
          "name": "",
          "type": "uint256"
        }
      ],
      "stateMutability": "view",
      "type": "function",
      "constant": true
    },
    {
      "inputs": [
        {
          "internalType": "address",
          "name": "",
          "type": "address"
        }
      ],
      "name": "customerBalance",
      "outputs": [
        {
          "internalType": "uint256",
          "name": "",
          "type": "uint256"
        }
      ],
      "stateMutability": "view",
      "type": "function",
      "constant": true
    },
    {
      "inputs": [],
      "name": "owner",
      "outputs": [
        {
          "internalType": "address",
          "name": "",
          "type": "address"
        }
      ],
      "stateMutability": "view",
      "type": "function",
      "constant": true
    },
    {
      "inputs": [],
      "name": "rentalPricePerDay",
      "outputs": [
        {
          "internalType": "uint256",
          "name": "",
          "type": "uint256"
        }
      ],
      "stateMutability": "view",
      "type": "function",
      "constant": true
    },
    {
      "inputs": [
        {
          "internalType": "address",
          "name": "",
          "type": "address"
        }
      ],
      "name": "rentedCars",
      "outputs": [
        {
          "internalType": "uint256",
          "name": "",
          "type": "uint256"
        }
      ],
      "stateMutability": "view",
      "type": "function",
      "constant": true
    },
    {
      "inputs": [],
      "name": "getRentalServiceBalance",
      "outputs": [
        {
          "internalType": "uint256",
          "name": "_balance",
          "type": "uint256"
        }
      ],
      "stateMutability": "view",
      "type": "function",
      "constant": true
    },
    {
      "inputs": [
        {
          "internalType": "uint256",
          "name": "_quantity",
          "type": "uint256"
        }
      ],
      "name": "restock",
      "outputs": [],
      "stateMutability": "nonpayable",
      "type": "function"
    },
    {
      "inputs": [
        {
          "internalType": "uint256",
          "name": "_days",
          "type": "uint256"
        }
      ],
      "name": "rentCar_Day",
      "outputs": [],
      "stateMutability": "payable",
      "type": "function",
      "payable": true
    },
    {
      "inputs": [],
      "name": "returnCar",
      "outputs": [],
      "stateMutability": "nonpayable",
      "type": "function"
    }
  ],
  "bytecode": "0x60806040526040516105dd3803806105dd83398101604081905261002291610048565b600080546001600160a01b03191633179055670de0b6b3a7640000600155600255610061565b60006020828403121561005a57600080fd5b5051919050565b61056d806100706000396000f3fe6080604052600436106100865760003560e01c8063a283a33311610059578063a283a33314610146578063a41a639f1461015c578063a9dab32014610173578063c21a702a14610186578063e88cfb14146101a657600080fd5b806337ebe47b1461008b578063770b9849146100cb5780638da5cb5b146100e157806397bb580514610119575b600080fd5b34801561009757600080fd5b506100b86100a6366004610495565b60036020526000908152604090205481565b6040519081526020015b60405180910390f35b3480156100d757600080fd5b506100b860015481565b3480156100ed57600080fd5b50600054610101906001600160a01b031681565b6040516001600160a01b0390911681526020016100c2565b34801561012557600080fd5b506100b8610134366004610495565b60046020526000908152604090205481565b34801561015257600080fd5b506100b860025481565b34801561016857600080fd5b506101716101b9565b005b34801561017f57600080fd5b50476100b8565b34801561019257600080fd5b506101716101a13660046104c5565b6102bf565b6101716101b43660046104c5565b61034b565b3360009081526004602052604090205461021a5760405162461bcd60e51b815260206004820152601c60248201527f596f7520686176656e27742072656e74656420616e7920636172732e0000000060448201526064015b60405180910390fd5b3360009081526004602052604081205460015490919061023a90836104f4565b3360009081526003602052604081208054929350839290919061025e908490610511565b90915550503360009081526004602052604081208190556002805460019290610288908490610524565b9091555050604051339082156108fc029083906000818181858888f193505050501580156102ba573d6000803e3d6000fd5b505050565b6000546001600160a01b031633146103315760405162461bcd60e51b815260206004820152602f60248201527f4f6e6c7920746865206f776e65722063616e20726573746f636b20746869732060448201526e3932b73a30b61039b2b93b34b1b29760891b6064820152608401610211565b80600260008282546103439190610524565b909155505050565b8060015461035991906104f4565b34101561039c5760405162461bcd60e51b81526020600482015260116024820152702737ba1032b737bab3b410333ab732399760791b6044820152606401610211565b6000600254116103e35760405162461bcd60e51b815260206004820152601260248201527127379031b0b9399030bb30b4b630b136329760711b6044820152606401610211565b336000908152600460205260409020541561044c5760405162461bcd60e51b8152602060048201526024808201527f596f752063616e206f6e6c792072656e74206f6e65206361722061742061207460448201526334b6b29760e11b6064820152608401610211565b336000908152600360205260408120805434929061046b908490610524565b90915550503360009081526004602052604081208290556002805460019290610343908490610511565b6000602082840312156104a757600080fd5b81356001600160a01b03811681146104be57600080fd5b9392505050565b6000602082840312156104d757600080fd5b5035919050565b634e487b7160e01b600052601160045260246000fd5b808202811582820484141761050b5761050b6104de565b92915050565b8181038181111561050b5761050b6104de565b8082018082111561050b5761050b6104de56fea2646970667358221220587845cbaa1dc343938466b0a24fae73c4492ec91ed5f7aa2d927a3cacf69da464736f6c63430008130033",
  "immutableReferences": {},
  "source": "// SPDX-License-Identifier: MIT\r\n\r\npragma solidity ^0.8.19;\r\n\r\ncontract CarRentalService {\r\n    // State variables\r\n    address public owner;\r\n    uint public rentalPricePerDay;\r\n    uint public availableCars;\r\n\r\n    mapping (address => uint) public customerBalance;\r\n    mapping (address => uint) public rentedCars;\r\n\r\n    // Constructor\r\n    constructor(uint _availableCars) payable {\r\n        owner = msg.sender;\r\n        rentalPricePerDay = 1 ether;\r\n        availableCars = _availableCars;\r\n    }\r\n\r\n    // Functions\r\n    function getRentalServiceBalance() public view returns (uint _balance) {\r\n        return address(this).balance;\r\n    }\r\n\r\n    function restock(uint _quantity) public {\r\n        require(msg.sender == owner, \"Only the owner can restock this rental service.\");\r\n        availableCars += _quantity;\r\n    }\r\n\r\n    function rentCar_Day(uint _days) public payable {\r\n        require(msg.value >= rentalPricePerDay * _days, \"Not enough funds.\");\r\n        require(availableCars > 0, \"No cars available.\");\r\n        require(rentedCars[msg.sender] == 0, \"You can only rent one car at a time.\");\r\n\r\n        customerBalance[msg.sender] += msg.value;\r\n        rentedCars[msg.sender] = _days;\r\n        availableCars -= 1;\r\n    }\r\n\r\n    function returnCar() public {\r\n        require(rentedCars[msg.sender] > 0, \"You haven't rented any cars.\");\r\n        \r\n        uint daysRented = rentedCars[msg.sender];\r\n        uint refundAmount = daysRented * rentalPricePerDay;\r\n        \r\n        customerBalance[msg.sender] -= refundAmount;\r\n        rentedCars[msg.sender] = 0;\r\n        availableCars += 1;\r\n        \r\n        payable(msg.sender).transfer(refundAmount);\r\n    }\r\n}\r\n",
  "sourcePath": "C:\\Users\\JohnN\\OneDrive\\Documents\\2nd Semester 4th Year\\2162 - 6BCHAIN\\car-rental\\car-rental-react\\my-rental-car-app\\contracts\\CarRentalService.sol",
  "compiler": {
    "name": "solc",
    "version": "0.8.19+commit.7dd6d404.Emscripten.clang"
  },
  "schemaVersion": "3.4.13",
  "updatedAt": "2023-04-20T11:13:17.466Z",
  "networkType": "ethereum",
  "devdoc": {
    "kind": "dev",
    "methods": {},
    "version": 1
  },
  "userdoc": {
    "kind": "user",
    "methods": {},
    "version": 1
  }
}