{
  "contractName": "CarRentalService",
  "abi": [
    {
      "inputs": [
        {
          "internalType": "uint256",
          "name": "_availableCars",
          "type": "uint256"
        }
      ],
      "stateMutability": "payable",
      "type": "constructor"
    },
    {
      "inputs": [],
      "name": "availableCars",
      "outputs": [
        {
          "internalType": "uint256",
          "name": "",
          "type": "uint256"
        }
      ],
      "stateMutability": "view",
      "type": "function"
    },
    {
      "inputs": [
        {
          "internalType": "address",
          "name": "",
          "type": "address"
        }
      ],
      "name": "customerBalance",
      "outputs": [
        {
          "internalType": "uint256",
          "name": "",
          "type": "uint256"
        }
      ],
      "stateMutability": "view",
      "type": "function"
    },
    {
      "inputs": [],
      "name": "owner",
      "outputs": [
        {
          "internalType": "address",
          "name": "",
          "type": "address"
        }
      ],
      "stateMutability": "view",
      "type": "function"
    },
    {
      "inputs": [],
      "name": "rentProfit",
      "outputs": [
        {
          "internalType": "uint256",
          "name": "",
          "type": "uint256"
        }
      ],
      "stateMutability": "view",
      "type": "function"
    },
    {
      "inputs": [],
      "name": "rentalPricePerDay",
      "outputs": [
        {
          "internalType": "uint256",
          "name": "",
          "type": "uint256"
        }
      ],
      "stateMutability": "view",
      "type": "function"
    },
    {
      "inputs": [],
      "name": "rentalPriceSUV",
      "outputs": [
        {
          "internalType": "uint256",
          "name": "",
          "type": "uint256"
        }
      ],
      "stateMutability": "view",
      "type": "function"
    },
    {
      "inputs": [],
      "name": "rentalPriceSedan",
      "outputs": [
        {
          "internalType": "uint256",
          "name": "",
          "type": "uint256"
        }
      ],
      "stateMutability": "view",
      "type": "function"
    },
    {
      "inputs": [],
      "name": "rentalPriceTruck",
      "outputs": [
        {
          "internalType": "uint256",
          "name": "",
          "type": "uint256"
        }
      ],
      "stateMutability": "view",
      "type": "function"
    },
    {
      "inputs": [
        {
          "internalType": "address",
          "name": "",
          "type": "address"
        }
      ],
      "name": "rentedCars",
      "outputs": [
        {
          "internalType": "uint256",
          "name": "",
          "type": "uint256"
        }
      ],
      "stateMutability": "view",
      "type": "function"
    },
    {
      "inputs": [],
      "name": "getRentalServiceBalance",
      "outputs": [
        {
          "internalType": "uint256",
          "name": "_balance",
          "type": "uint256"
        }
      ],
      "stateMutability": "view",
      "type": "function"
    },
    {
      "inputs": [
        {
          "internalType": "uint256",
          "name": "_quantity",
          "type": "uint256"
        }
      ],
      "name": "restock",
      "outputs": [],
      "stateMutability": "nonpayable",
      "type": "function"
    },
    {
      "inputs": [
        {
          "internalType": "uint256",
          "name": "_days",
          "type": "uint256"
        }
      ],
      "name": "rentCar_Day",
      "outputs": [],
      "stateMutability": "payable",
      "type": "function"
    },
    {
      "inputs": [
        {
          "internalType": "uint256",
          "name": "_days",
          "type": "uint256"
        }
      ],
      "name": "rentCar_Sedan",
      "outputs": [],
      "stateMutability": "payable",
      "type": "function"
    },
    {
      "inputs": [
        {
          "internalType": "uint256",
          "name": "_days",
          "type": "uint256"
        }
      ],
      "name": "rentCar_SUV",
      "outputs": [],
      "stateMutability": "payable",
      "type": "function"
    },
    {
      "inputs": [
        {
          "internalType": "uint256",
          "name": "_days",
          "type": "uint256"
        }
      ],
      "name": "rentCar_Truck",
      "outputs": [],
      "stateMutability": "payable",
      "type": "function"
    },
    {
      "inputs": [],
      "name": "returnCar",
      "outputs": [],
      "stateMutability": "nonpayable",
      "type": "function"
    }
  ],
  "bytecode": "0x60806040526040516109e13803806109e183398101604081905261002291610071565b600080546001600160a01b03191633179055671bc16d674ec800006001819055670de0b6b3a76400006003556004556729a2241af62c00006005556706f05b59d3b2000060065560025561008a565b60006020828403121561008357600080fd5b5051919050565b610948806100996000396000f3fe6080604052600436106100f35760003560e01c80638da5cb5b1161008a578063a9dab32011610059578063a9dab3201461025b578063c21a702a1461026e578063e88cfb141461028e578063f531d90a146102a157600080fd5b80638da5cb5b146101cb57806397bb580514610203578063a283a33314610230578063a41a639f1461024657600080fd5b80635fe53822116100c65780635fe5382214610179578063770b98491461018c578063809c9061146101a25780638ac09e7d146101b857600080fd5b806313f7638f146100f85780633077576c1461012157806337ebe47b146101375780635e7960a814610164575b600080fd5b34801561010457600080fd5b5061010e60035481565b6040519081526020015b60405180910390f35b34801561012d57600080fd5b5061010e60065481565b34801561014357600080fd5b5061010e610152366004610845565b60076020526000908152604090205481565b610177610172366004610875565b6102b7565b005b610177610187366004610875565b6103f2565b34801561019857600080fd5b5061010e60015481565b3480156101ae57600080fd5b5061010e60045481565b6101776101c6366004610875565b6104f7565b3480156101d757600080fd5b506000546101eb906001600160a01b031681565b6040516001600160a01b039091168152602001610118565b34801561020f57600080fd5b5061010e61021e366004610845565b60086020526000908152604090205481565b34801561023c57600080fd5b5061010e60025481565b34801561025257600080fd5b506101776105d8565b34801561026757600080fd5b504761010e565b34801561027a57600080fd5b50610177610289366004610875565b6106e4565b61017761029c366004610875565b610768565b3480156102ad57600080fd5b5061010e60055481565b806003546102c591906108a4565b3410156102ed5760405162461bcd60e51b81526004016102e4906108c1565b60405180910390fd5b6000600254116103355760405162461bcd60e51b815260206004820152601360248201527227379029b2b230b71030bb30b4b630b136329760691b60448201526064016102e4565b33600090815260086020526040902054156103a15760405162461bcd60e51b815260206004820152602660248201527f596f752063616e206f6e6c792072656e74206f6e6520536564616e2061742061604482015265103a34b6b29760d11b60648201526084016102e4565b33600090815260076020526040812080543492906103c09084906108ec565b909155505033600090815260086020526040812082905560028054600192906103ea9084906108ff565b909155505050565b8060045461040091906108a4565b3410156104485760405162461bcd60e51b81526020600482015260166024820152754e6f7420656e6f7567682066756e64732e48656c6c6f60501b60448201526064016102e4565b60006002541161048e5760405162461bcd60e51b815260206004820152601160248201527027379029aaab1030bb30b4b630b136329760791b60448201526064016102e4565b33600090815260086020526040902054156103a15760405162461bcd60e51b8152602060048201526024808201527f596f752063616e206f6e6c792072656e74206f6e65205355562061742061207460448201526334b6b29760e11b60648201526084016102e4565b8060055461050591906108a4565b3410156105245760405162461bcd60e51b81526004016102e4906108c1565b60006002541161056c5760405162461bcd60e51b81526020600482015260136024820152722737902a393ab1b59030bb30b4b630b136329760691b60448201526064016102e4565b33600090815260086020526040902054156103a15760405162461bcd60e51b815260206004820152602660248201527f596f752063616e206f6e6c792072656e74206f6e6520747275636b2061742061604482015265103a34b6b29760d11b60648201526084016102e4565b336000908152600860205260409020546106345760405162461bcd60e51b815260206004820152601c60248201527f596f7520686176656e27742072656e74656420616e7920636172732e0000000060448201526064016102e4565b336000908152600860205260408120546001805491929161065590846108a4565b61065f91906108ff565b336000908152600760205260408120805492935083929091906106839084906108ff565b909155505033600090815260086020526040812081905560028054600192906106ad9084906108ec565b9091555050604051339082156108fc029083906000818181858888f193505050501580156106df573d6000803e3d6000fd5b505050565b6000546001600160a01b031633146107565760405162461bcd60e51b815260206004820152602f60248201527f4f6e6c7920746865206f776e65722063616e20726573746f636b20746869732060448201526e3932b73a30b61039b2b93b34b1b29760891b60648201526084016102e4565b80600260008282546103ea91906108ec565b8060015461077691906108a4565b3410156107955760405162461bcd60e51b81526004016102e4906108c1565b6000600254116107dc5760405162461bcd60e51b815260206004820152601260248201527127379031b0b9399030bb30b4b630b136329760711b60448201526064016102e4565b33600090815260086020526040902054156103a15760405162461bcd60e51b8152602060048201526024808201527f596f752063616e206f6e6c792072656e74206f6e65206361722061742061207460448201526334b6b29760e11b60648201526084016102e4565b60006020828403121561085757600080fd5b81356001600160a01b038116811461086e57600080fd5b9392505050565b60006020828403121561088757600080fd5b5035919050565b634e487b7160e01b600052601160045260246000fd5b80820281158282048414176108bb576108bb61088e565b92915050565b6020808252601190820152702737ba1032b737bab3b410333ab732399760791b604082015260600190565b808201808211156108bb576108bb61088e565b818103818111156108bb576108bb61088e56fea26469706673582212208d457eb6b3673689bcb768d29c3fcbee069075b4d0507cb97ed04948ee00ea2264736f6c63430008130033",
  "immutableReferences": {},
  "source": "// SPDX-License-Identifier: MIT\r\n\r\npragma solidity ^0.8.19;\r\n\r\ncontract CarRentalService {\r\n    // State variables\r\n    address public owner;\r\n    uint public rentalPricePerDay;\r\n    uint public availableCars;\r\n    uint public rentalPriceSedan;\r\n    uint public rentalPriceSUV;\r\n    uint public rentalPriceTruck;\r\n    uint public rentProfit;\r\n\r\n    mapping (address => uint) public customerBalance;\r\n    mapping (address => uint) public rentedCars;\r\n\r\n    // Constructor\r\n    constructor(uint _availableCars) payable {\r\n        owner = msg.sender;\r\n        rentalPricePerDay = 2 ether;\r\n        rentalPriceSedan = 1 ether;\r\n        rentalPriceSUV = 2 ether;\r\n        rentalPriceTruck = 3 ether;\r\n        rentProfit = 0.5 ether;\r\n        availableCars = _availableCars;\r\n    }\r\n\r\n    // Functions\r\n    function getRentalServiceBalance() public view returns (uint _balance) {\r\n        return address(this).balance;\r\n    }\r\n\r\n    function restock(uint _quantity) public {\r\n        require(msg.sender == owner, \"Only the owner can restock this rental service.\");\r\n        availableCars += _quantity;\r\n    }\r\n\r\n    function rentCar_Day(uint _days) public payable {\r\n        require(msg.value >= rentalPricePerDay * _days, \"Not enough funds.\");\r\n        require(availableCars > 0, \"No cars available.\");\r\n        require(rentedCars[msg.sender] == 0, \"You can only rent one car at a time.\");\r\n\r\n        customerBalance[msg.sender] += msg.value;\r\n        rentedCars[msg.sender] = _days;\r\n        availableCars -= 1;\r\n    }\r\n        function rentCar_Sedan(uint _days) public payable {\r\n        require(msg.value >= rentalPriceSedan * _days, \"Not enough funds.\");\r\n        require(availableCars > 0, \"No Sedan available.\");\r\n        require(rentedCars[msg.sender] == 0, \"You can only rent one Sedan at a time.\");\r\n\r\n        customerBalance[msg.sender] += msg.value;\r\n        rentedCars[msg.sender] = _days;\r\n        availableCars -= 1;\r\n    }\r\n        function rentCar_SUV(uint _days) public payable {\r\n        require(msg.value >= rentalPriceSUV * _days, \"Not enough funds.Hello\");\r\n        require(availableCars > 0, \"No SUV available.\");\r\n        require(rentedCars[msg.sender] == 0, \"You can only rent one SUV at a time.\");\r\n\r\n        customerBalance[msg.sender] += msg.value;\r\n        rentedCars[msg.sender] = _days;\r\n        availableCars -= 1;\r\n    }\r\n        function rentCar_Truck(uint _days) public payable {\r\n        require(msg.value >= rentalPriceTruck * _days, \"Not enough funds.\");\r\n        require(availableCars > 0, \"No Truck available.\");\r\n        require(rentedCars[msg.sender] == 0, \"You can only rent one truck at a time.\");\r\n\r\n        customerBalance[msg.sender] += msg.value;\r\n        rentedCars[msg.sender] = _days;\r\n        availableCars -= 1;\r\n    }\r\n\r\n    function returnCar() public {\r\n        require(rentedCars[msg.sender] > 0, \"You haven't rented any cars.\");\r\n        \r\n        uint daysRented = rentedCars[msg.sender];\r\n        uint refundAmount = daysRented * rentalPricePerDay - 1;\r\n        \r\n        customerBalance[msg.sender] -= refundAmount;\r\n        rentedCars[msg.sender] = 0;\r\n        availableCars += 1;\r\n        \r\n        payable(msg.sender).transfer(refundAmount);\r\n    }\r\n\r\n}\r\n",
  "sourcePath": "C:\\Users\\JohnN\\OneDrive\\Documents\\2nd Semester 4th Year\\2162 - 6BCHAIN\\car-rental\\car-rental-react\\my-rental-car-app\\contracts\\CarRentalService.sol",
  "compiler": {
    "name": "solc",
    "version": "0.8.19+commit.7dd6d404.Emscripten.clang"
  },
  "schemaVersion": "3.4.13",
  "updatedAt": "2023-04-26T10:22:14.862Z",
  "devdoc": {
    "kind": "dev",
    "methods": {},
    "version": 1
  },
  "userdoc": {
    "kind": "user",
    "methods": {},
    "version": 1
  }
}